{"abi":[{"type":"constructor","inputs":[{"name":"_usdc","type":"address","internalType":"address"},{"name":"_owner","type":"address","internalType":"address"}],"stateMutability":"nonpayable"},{"type":"function","name":"balance","inputs":[],"outputs":[{"name":"","type":"uint256","internalType":"uint256"}],"stateMutability":"view"},{"type":"function","name":"owner","inputs":[],"outputs":[{"name":"","type":"address","internalType":"address"}],"stateMutability":"view"},{"type":"function","name":"setOwner","inputs":[{"name":"newOwner","type":"address","internalType":"address"}],"outputs":[],"stateMutability":"nonpayable"},{"type":"function","name":"usdc","inputs":[],"outputs":[{"name":"","type":"address","internalType":"contract IERC20"}],"stateMutability":"view"},{"type":"function","name":"withdraw","inputs":[{"name":"to","type":"address","internalType":"address"},{"name":"amount","type":"uint256","internalType":"uint256"}],"outputs":[],"stateMutability":"nonpayable"},{"type":"event","name":"OwnerChanged","inputs":[{"name":"newOwner","type":"address","indexed":true,"internalType":"address"}],"anonymous":false},{"type":"event","name":"Withdraw","inputs":[{"name":"to","type":"address","indexed":true,"internalType":"address"},{"name":"amount","type":"uint256","indexed":false,"internalType":"uint256"}],"anonymous":false}],"bytecode":{"object":"0x60a060405234801561000f575f5ffd5b506040516109a53803806109a583398181016040528101906100319190610109565b8173ffffffffffffffffffffffffffffffffffffffff1660808173ffffffffffffffffffffffffffffffffffffffff1681525050805f5f6101000a81548173ffffffffffffffffffffffffffffffffffffffff021916908373ffffffffffffffffffffffffffffffffffffffff1602179055505050610147565b5f5ffd5b5f73ffffffffffffffffffffffffffffffffffffffff82169050919050565b5f6100d8826100af565b9050919050565b6100e8816100ce565b81146100f2575f5ffd5b50565b5f81519050610103816100df565b92915050565b5f5f6040838503121561011f5761011e6100ab565b5b5f61012c858286016100f5565b925050602061013d858286016100f5565b9150509250929050565b60805161083861016d5f395f818161020001528181610249015261037401526108385ff3fe608060405234801561000f575f5ffd5b5060043610610055575f3560e01c806313af4035146100595780633e413bee146100755780638da5cb5b14610093578063b69ef8a8146100b1578063f3fef3a3146100cf575b5f5ffd5b610073600480360381019061006e91906104fc565b6100eb565b005b61007d6101fe565b60405161008a9190610582565b60405180910390f35b61009b610222565b6040516100a891906105aa565b60405180910390f35b6100b9610246565b6040516100c691906105db565b60405180910390f35b6100e960048036038101906100e4919061061e565b6102e4565b005b5f5f9054906101000a900473ffffffffffffffffffffffffffffffffffffffff1673ffffffffffffffffffffffffffffffffffffffff163373ffffffffffffffffffffffffffffffffffffffff1614610179576040517f08c379a0000000000000000000000000000000000000000000000000000000008152600401610170906106b6565b60405180910390fd5b805f5f6101000a81548173ffffffffffffffffffffffffffffffffffffffff021916908373ffffffffffffffffffffffffffffffffffffffff1602179055508073ffffffffffffffffffffffffffffffffffffffff167fa2ea9883a321a3e97b8266c2b078bfeec6d50c711ed71f874a90d500ae2eaf3660405160405180910390a250565b7f000000000000000000000000000000000000000000000000000000000000000081565b5f5f9054906101000a900473ffffffffffffffffffffffffffffffffffffffff1681565b5f7f000000000000000000000000000000000000000000000000000000000000000073ffffffffffffffffffffffffffffffffffffffff166370a08231306040518263ffffffff1660e01b81526004016102a091906105aa565b602060405180830381865afa1580156102bb573d5f5f3e3d5ffd5b505050506040513d601f19601f820116820180604052508101906102df91906106e8565b905090565b5f5f9054906101000a900473ffffffffffffffffffffffffffffffffffffffff1673ffffffffffffffffffffffffffffffffffffffff163373ffffffffffffffffffffffffffffffffffffffff1614610372576040517f08c379a0000000000000000000000000000000000000000000000000000000008152600401610369906106b6565b60405180910390fd5b7f000000000000000000000000000000000000000000000000000000000000000073ffffffffffffffffffffffffffffffffffffffff1663a9059cbb83836040518363ffffffff1660e01b81526004016103cd929190610713565b6020604051808303815f875af11580156103e9573d5f5f3e3d5ffd5b505050506040513d601f19601f8201168201806040525081019061040d919061076f565b61044c576040517f08c379a0000000000000000000000000000000000000000000000000000000008152600401610443906107e4565b60405180910390fd5b8173ffffffffffffffffffffffffffffffffffffffff167f884edad9ce6fa2440d8a54cc123490eb96d2768479d49ff9c7366125a94243648260405161049291906105db565b60405180910390a25050565b5f5ffd5b5f73ffffffffffffffffffffffffffffffffffffffff82169050919050565b5f6104cb826104a2565b9050919050565b6104db816104c1565b81146104e5575f5ffd5b50565b5f813590506104f6816104d2565b92915050565b5f602082840312156105115761051061049e565b5b5f61051e848285016104e8565b91505092915050565b5f819050919050565b5f61054a610545610540846104a2565b610527565b6104a2565b9050919050565b5f61055b82610530565b9050919050565b5f61056c82610551565b9050919050565b61057c81610562565b82525050565b5f6020820190506105955f830184610573565b92915050565b6105a4816104c1565b82525050565b5f6020820190506105bd5f83018461059b565b92915050565b5f819050919050565b6105d5816105c3565b82525050565b5f6020820190506105ee5f8301846105cc565b92915050565b6105fd816105c3565b8114610607575f5ffd5b50565b5f81359050610618816105f4565b92915050565b5f5f604083850312156106345761063361049e565b5b5f610641858286016104e8565b92505060206106528582860161060a565b9150509250929050565b5f82825260208201905092915050565b7f4c656467657220617070726f76616c20726571756972656400000000000000005f82015250565b5f6106a060188361065c565b91506106ab8261066c565b602082019050919050565b5f6020820190508181035f8301526106cd81610694565b9050919050565b5f815190506106e2816105f4565b92915050565b5f602082840312156106fd576106fc61049e565b5b5f61070a848285016106d4565b91505092915050565b5f6040820190506107265f83018561059b565b61073360208301846105cc565b9392505050565b5f8115159050919050565b61074e8161073a565b8114610758575f5ffd5b50565b5f8151905061076981610745565b92915050565b5f602082840312156107845761078361049e565b5b5f6107918482850161075b565b91505092915050565b7f7472616e73666572206661696c656400000000000000000000000000000000005f82015250565b5f6107ce600f8361065c565b91506107d98261079a565b602082019050919050565b5f6020820190508181035f8301526107fb816107c2565b905091905056fea264697066735822122050a17675ee6b1e52a1c08cec5e8a593e4572cb67d4d51f1cb25882164c3ccd5a64736f6c634300081c0033","linkReferences":{}},"methodIdentifiers":{"balance()":"b69ef8a8","owner()":"8da5cb5b","setOwner(address)":"13af4035","usdc()":"3e413bee","withdraw(address,uint256)":"f3fef3a3"},"id":0}