{"abi":[{"type":"function","name":"agentOwner","inputs":[{"name":"","type":"uint256","internalType":"uint256"}],"outputs":[{"name":"","type":"address","internalType":"address"}],"stateMutability":"view"},{"type":"function","name":"feedbackCount","inputs":[{"name":"agentId","type":"uint256","internalType":"uint256"}],"outputs":[{"name":"","type":"uint256","internalType":"uint256"}],"stateMutability":"view"},{"type":"function","name":"getSummary","inputs":[{"name":"agentId","type":"uint256","internalType":"uint256"}],"outputs":[{"name":"count","type":"uint256","internalType":"uint256"},{"name":"avgValue","type":"int256","internalType":"int256"}],"stateMutability":"view"},{"type":"function","name":"giveFeedback","inputs":[{"name":"agentId","type":"uint256","internalType":"uint256"},{"name":"value","type":"int128","internalType":"int128"},{"name":"valueDecimals","type":"uint8","internalType":"uint8"},{"name":"tag1","type":"string","internalType":"string"},{"name":"tag2","type":"string","internalType":"string"},{"name":"endpoint","type":"string","internalType":"string"},{"name":"feedbackURI","type":"string","internalType":"string"},{"name":"feedbackHash","type":"bytes32","internalType":"bytes32"}],"outputs":[],"stateMutability":"nonpayable"},{"type":"function","name":"setAgentOwner","inputs":[{"name":"agentId","type":"uint256","internalType":"uint256"},{"name":"owner","type":"address","internalType":"address"}],"outputs":[],"stateMutability":"nonpayable"},{"type":"event","name":"NewFeedback","inputs":[{"name":"agentId","type":"uint256","indexed":true,"internalType":"uint256"},{"name":"clientAddress","type":"address","indexed":true,"internalType":"address"},{"name":"feedbackIndex","type":"uint64","indexed":false,"internalType":"uint64"},{"name":"value","type":"int128","indexed":false,"internalType":"int128"},{"name":"valueDecimals","type":"uint8","indexed":false,"internalType":"uint8"},{"name":"indexedTag1","type":"string","indexed":true,"internalType":"string"},{"name":"tag1","type":"string","indexed":false,"internalType":"string"},{"name":"tag2","type":"string","indexed":false,"internalType":"string"},{"name":"endpoint","type":"string","indexed":false,"internalType":"string"},{"name":"feedbackURI","type":"string","indexed":false,"internalType":"string"},{"name":"feedbackHash","type":"bytes32","indexed":false,"internalType":"bytes32"}],"anonymous":false}],"bytecode":{"object":"0x60808060405234601557610b05908161001a8239f35b5f80fdfe60806040526004361015610011575f80fd5b5f3560e01c806307ca2dc6146108eb5780631e7924f8146108c25780633c036a7e146100b05780636f6bf1181461007e5763aee1446014610050575f80fd5b3461007a57602036600319011261007a57604061006e600435610a2c565b82519182526020820152f35b5f80fd5b3461007a57602036600319011261007a576004355f526001602052602060018060a01b0360405f205416604051908152f35b3461007a5761010036600319011261007a576004356024359081600f0b80920361007a576044359060ff821680920361007a576064356001600160401b03811161007a5761010290369060040161095c565b92906084356001600160401b03811161007a5761012390369060040161095c565b9060a4356001600160401b03811161007a5761014390369060040161095c565b909160c4356001600160401b03811161007a5761016490369060040161095c565b94909560e43599895f52600160205260018060a01b0360405f205416331461087d575f8a81526020819052604090819020805491516001600160401b039283169b926101208201908111828210176105fe578f8f918a898f938f93948f8e966040523389526020890192835260408901968b88528d8d36906101e592610989565b9460608b0195865236906101f892610989565b9460808a01958652369061020b92610989565b9460a08901958652369061021e92610989565b9460c0880195865260e08801968752610100880198426001600160401b03168a528054680100000000000000008110156105fe57610261916001820181556109df565b98909861086a575188546001600160a01b039091166001600160a01b03199091161788559051600188018054925160ff60801b60809190911b166fffffffffffffffffffffffffffffffff90921670ffffffffffffffffffffffffffffffffff199093169290921717905551805160028701916001600160401b0382116105fe57825490600182811c92168015610860575b60208310146105e05781601f849311610810575b50602090601f83116001146107ad575f926107a2575b50508160011b915f199060031b1c19161790555b51805160038601916001600160401b0382116105fe57825490600182811c92168015610798575b60208310146105e05781601f849311610748575b50602090601f83116001146106e5575f926106da575b50508160011b915f199060031b1c19161790555b51805160048501916001600160401b0382116105fe57825490600182811c921680156106d0575b60208310146105e05781601f849311610680575b50602090601f831160011461061d575f92610612575b50508160011b915f199060031b1c19161790555b51805160058401916001600160401b0382116105fe57825490600182811c921680156105f4575b60208310146105e05781601f849311610590575b50602090601f831160011461052d575f92610522575b50508160011b915f199060031b1c19161790555b51600682015560070190516001600160401b03166001600160401b031982541617905560405182848237808381015f81520390209c6040519a8b5260208b015260408a01526060890161010090526101008901906104bd92610a0c565b9087820360808901526104cf92610a0c565b9085820360a08701526104e192610a0c565b9083820360c08501526104f392610a0c565b9260e0820152803393037f6a4a61743519c9d648a14e6493f47dbe3ff1aa29e7785c96c8326a205e58febc91a4005b015190505f8061044c565b5f8581528281209350601f198516905b8181106105785750908460019594939210610560575b505050811b019055610460565b01515f1960f88460031b161c191690555f8080610553565b9293602060018192878601518155019501930161053d565b909150835f5260205f20601f840160051c810191602085106105d6575b90601f859493920160051c01905b8181106105c85750610436565b5f81558493506001016105bb565b90915081906105ad565b634e487b7160e01b5f52602260045260245ffd5b91607f1691610422565b634e487b7160e01b5f52604160045260245ffd5b015190505f806103e7565b5f8581528281209350601f198516905b8181106106685750908460019594939210610650575b505050811b0190556103fb565b01515f1960f88460031b161c191690555f8080610643565b9293602060018192878601518155019501930161062d565b909150835f5260205f20601f840160051c810191602085106106c6575b90601f859493920160051c01905b8181106106b857506103d1565b5f81558493506001016106ab565b909150819061069d565b91607f16916103bd565b015190505f80610382565b5f8581528281209350601f198516905b8181106107305750908460019594939210610718575b505050811b019055610396565b01515f1960f88460031b161c191690555f808061070b565b929360206001819287860151815501950193016106f5565b909150835f5260205f20601f840160051c8101916020851061078e575b90601f859493920160051c01905b818110610780575061036c565b5f8155849350600101610773565b9091508190610765565b91607f1691610358565b015190505f8061031d565b5f8581528281209350601f198516905b8181106107f857509084600195949392106107e0575b505050811b019055610331565b01515f1960f88460031b161c191690555f80806107d3565b929360206001819287860151815501950193016107bd565b909150835f5260205f20601f840160051c81019160208510610856575b90601f859493920160051c01905b8181106108485750610307565b5f815584935060010161083b565b909150819061082d565b91607f16916102f3565b634e487b7160e01b5f525f60045260245ffd5b60405162461bcd60e51b815260206004820152601960248201527f53656c662d666565646261636b206e6f7420616c6c6f776564000000000000006044820152606490fd5b3461007a57602036600319011261007a576004355f525f602052602060405f2054604051908152f35b3461007a57604036600319011261007a576024356004356001600160a01b038216820361007a575f818152600160205260409020546001600160a01b03161561093057005b5f90815260016020526040902080546001600160a01b0319166001600160a01b03909216919091179055005b9181601f8401121561007a578235916001600160401b03831161007a576020838186019501011161007a57565b9291926001600160401b0382116105fe5760405191601f8101601f19908116603f011683016001600160401b038111848210176105fe5760405282948184528183011161007a578281602093845f960137010152565b80548210156109f8575f5260205f209060031b01905f90565b634e487b7160e01b5f52603260045260245ffd5b908060209392818452848401375f828201840152601f01601f1916010190565b5f525f60205260405f20908154918215610ac7575f905f905b848210610a925750508215610a7e57600160ff1b81145f19841416610a6a5782900590565b634e487b7160e01b5f52601160045260245ffd5b634e487b7160e01b5f52601260045260245ffd5b90916001610aa084846109df565b500154600f0b905f8282019283129112908015821691151617610a6a579160010190610a45565b505f9150819056fea2646970667358221220bea24e13d5b1b053dc7a05a1d6599918839d189c60efb2ada1d585fdd4c58cbf64736f6c634300081c0033","linkReferences":{}},"methodIdentifiers":{"agentOwner(uint256)":"6f6bf118","feedbackCount(uint256)":"1e7924f8","getSummary(uint256)":"aee14460","giveFeedback(uint256,int128,uint8,string,string,string,string,bytes32)":"3c036a7e","setAgentOwner(uint256,address)":"07ca2dc6"},"id":0}